{
  "contractName": "VendingMachcine",
  "abi": [
    {
      "inputs": [],
      "stateMutability": "nonpayable",
      "type": "constructor"
    },
    {
      "inputs": [
        {
          "internalType": "address",
          "name": "",
          "type": "address"
        }
      ],
      "name": "donuntBalances",
      "outputs": [
        {
          "internalType": "uint256",
          "name": "",
          "type": "uint256"
        }
      ],
      "stateMutability": "view",
      "type": "function",
      "constant": true
    },
    {
      "inputs": [],
      "name": "owner",
      "outputs": [
        {
          "internalType": "address",
          "name": "",
          "type": "address"
        }
      ],
      "stateMutability": "view",
      "type": "function",
      "constant": true
    },
    {
      "inputs": [],
      "name": "getVendingMachineBalance",
      "outputs": [
        {
          "internalType": "uint256",
          "name": "",
          "type": "uint256"
        }
      ],
      "stateMutability": "view",
      "type": "function",
      "constant": true
    },
    {
      "inputs": [
        {
          "internalType": "uint256",
          "name": "_amount",
          "type": "uint256"
        }
      ],
      "name": "restock",
      "outputs": [],
      "stateMutability": "nonpayable",
      "type": "function"
    },
    {
      "inputs": [
        {
          "internalType": "uint256",
          "name": "_amount",
          "type": "uint256"
        }
      ],
      "name": "puchase",
      "outputs": [],
      "stateMutability": "payable",
      "type": "function",
      "payable": true
    }
  ],
  "bytecode": "0x608060405234801561001057600080fd5b50336000806101000a81548173ffffffffffffffffffffffffffffffffffffffff021916908373ffffffffffffffffffffffffffffffffffffffff1602179055506064600160003073ffffffffffffffffffffffffffffffffffffffff1673ffffffffffffffffffffffffffffffffffffffff1681526020019081526020016000208190555061084d806100a56000396000f3fe60806040526004361061004a5760003560e01c80638da5cb5b1461004f57806394bffd891461007a578063994a339614610096578063c21a702a146100d3578063e7644d34146100fc575b600080fd5b34801561005b57600080fd5b50610064610127565b604051610071919061045d565b60405180910390f35b610094600480360381019061008f91906104b3565b61014b565b005b3480156100a257600080fd5b506100bd60048036038101906100b8919061050c565b6102d6565b6040516100ca9190610548565b60405180910390f35b3480156100df57600080fd5b506100fa60048036038101906100f591906104b3565b6102ee565b005b34801561010857600080fd5b506101116103d5565b60405161011e9190610548565b60405180910390f35b60008054906101000a900473ffffffffffffffffffffffffffffffffffffffff1681565b8080600160003073ffffffffffffffffffffffffffffffffffffffff1673ffffffffffffffffffffffffffffffffffffffff1681526020019081526020016000205410156101ce576040517f08c379a00000000000000000000000000000000000000000000000000000000081526004016101c5906105e6565b60405180910390fd5b81671bc16d674ec80000816101e39190610635565b341015610225576040517f08c379a000000000000000000000000000000000000000000000000000000000815260040161021c90610701565b60405180910390fd5b82600160003073ffffffffffffffffffffffffffffffffffffffff1673ffffffffffffffffffffffffffffffffffffffff16815260200190815260200160002060008282546102749190610721565b9250508190555082600160003373ffffffffffffffffffffffffffffffffffffffff1673ffffffffffffffffffffffffffffffffffffffff16815260200190815260200160002060008282546102ca9190610755565b92505081905550505050565b60016020528060005260406000206000915090505481565b60008054906101000a900473ffffffffffffffffffffffffffffffffffffffff1673ffffffffffffffffffffffffffffffffffffffff163373ffffffffffffffffffffffffffffffffffffffff161461037c576040517f08c379a0000000000000000000000000000000000000000000000000000000008152600401610373906107f7565b60405180910390fd5b80600160003073ffffffffffffffffffffffffffffffffffffffff1673ffffffffffffffffffffffffffffffffffffffff16815260200190815260200160002060008282546103cb9190610755565b9250508190555050565b6000600160003073ffffffffffffffffffffffffffffffffffffffff1673ffffffffffffffffffffffffffffffffffffffff16815260200190815260200160002054905090565b600073ffffffffffffffffffffffffffffffffffffffff82169050919050565b60006104478261041c565b9050919050565b6104578161043c565b82525050565b6000602082019050610472600083018461044e565b92915050565b600080fd5b6000819050919050565b6104908161047d565b811461049b57600080fd5b50565b6000813590506104ad81610487565b92915050565b6000602082840312156104c9576104c8610478565b5b60006104d78482850161049e565b91505092915050565b6104e98161043c565b81146104f457600080fd5b50565b600081359050610506816104e0565b92915050565b60006020828403121561052257610521610478565b5b6000610530848285016104f7565b91505092915050565b6105428161047d565b82525050565b600060208201905061055d6000830184610539565b92915050565b600082825260208201905092915050565b7f4e6f20656e6f7567682062616c616e636520746f20636f6d706c65746520746860008201527f652074726173616374696f6e0000000000000000000000000000000000000000602082015250565b60006105d0602c83610563565b91506105db82610574565b604082019050919050565b600060208201905081810360008301526105ff816105c3565b9050919050565b7f4e487b7100000000000000000000000000000000000000000000000000000000600052601160045260246000fd5b60006106408261047d565b915061064b8361047d565b9250817fffffffffffffffffffffffffffffffffffffffffffffffffffffffffffffffff048311821515161561068457610683610606565b5b828202905092915050565b7f596f75206d7573742070726f766964652061746c65617374203220657468657260008201527f20746f2070756368617365000000000000000000000000000000000000000000602082015250565b60006106eb602b83610563565b91506106f68261068f565b604082019050919050565b6000602082019050818103600083015261071a816106de565b9050919050565b600061072c8261047d565b91506107378361047d565b92508282101561074a57610749610606565b5b828203905092915050565b60006107608261047d565b915061076b8361047d565b9250827fffffffffffffffffffffffffffffffffffffffffffffffffffffffffffffffff038211156107a05761079f610606565b5b828201905092915050565b7f4f6e6c79206f776e65722063616e20726573746f636b00000000000000000000600082015250565b60006107e1601683610563565b91506107ec826107ab565b602082019050919050565b60006020820190508181036000830152610810816107d4565b905091905056fea26469706673582212200d895b65f073dcd9450e5f33e6a7488df2ba85341dcf399de5e5ec5dea38f19f64736f6c634300080e0033",
  "immutableReferences": {},
  "source": "//SPDX-License-Identifier:MIT\r\n\r\npragma solidity ^0.8.0;\r\n\r\ncontract VendingMachcine {\r\n    address public owner;\r\n    mapping(address => uint256) public donuntBalances;\r\n\r\n    constructor() {\r\n        owner = msg.sender;\r\n        donuntBalances[address(this)] = 100;\r\n    }\r\n\r\n    function getVendingMachineBalance() external view returns (uint256) {\r\n        return donuntBalances[address(this)];\r\n    }\r\n\r\n    modifier onlyOwner() {\r\n        require(msg.sender == owner, \"Only owner can restock\");\r\n        _;\r\n    }\r\n\r\n    function restock(uint256 _amount) public onlyOwner {\r\n        donuntBalances[address(this)] += _amount;\r\n    }\r\n\r\n    modifier validate(uint256 _amount) {\r\n        require(\r\n            msg.value >= _amount * 2 ether,\r\n            \"You must provide atleast 2 ether to puchase\"\r\n        );\r\n        _;\r\n    }\r\n    modifier checkBalance(uint256 _amount) {\r\n        require(\r\n            donuntBalances[address(this)] >= _amount,\r\n            \"No enough balance to complete the trasaction\"\r\n        );\r\n        _;\r\n    }\r\n\r\n    function puchase(uint256 _amount)\r\n        public\r\n        payable\r\n        checkBalance(_amount)\r\n        validate(_amount)\r\n    {\r\n        donuntBalances[address(this)] -= _amount;\r\n        donuntBalances[msg.sender] += _amount;\r\n    }\r\n}\r\n",
  "sourcePath": "D:\\Truffle-blockchain-projects\\vending_machine_project_blockchain\\contracts\\VendingMachcine.sol",
  "compiler": {
    "name": "solc",
    "version": "0.8.14+commit.80d49f37.Emscripten.clang"
  },
  "schemaVersion": "3.4.7",
  "updatedAt": "2022-06-16T09:28:44.384Z",
  "networkType": "ethereum",
  "devdoc": {
    "kind": "dev",
    "methods": {},
    "version": 1
  },
  "userdoc": {
    "kind": "user",
    "methods": {},
    "version": 1
  }
}